{
  "_format": "hh-sol-artifact-1",
  "contractName": "Staking",
  "sourceName": "contracts/Staking.sol",
  "abi": [
    {
      "inputs": [],
      "stateMutability": "nonpayable",
      "type": "constructor"
    },
    {
      "anonymous": false,
      "inputs": [
        {
          "indexed": false,
          "internalType": "address",
          "name": "creator",
          "type": "address"
        },
        {
          "indexed": false,
          "internalType": "address",
          "name": "token",
          "type": "address"
        },
        {
          "indexed": true,
          "internalType": "address",
          "name": "pool",
          "type": "address"
        },
        {
          "indexed": true,
          "internalType": "string",
          "name": "poolID",
          "type": "string"
        },
        {
          "indexed": false,
          "internalType": "uint256",
          "name": "duration",
          "type": "uint256"
        },
        {
          "indexed": false,
          "internalType": "uint256",
          "name": "rewards",
          "type": "uint256"
        }
      ],
      "name": "CreatePool",
      "type": "event"
    },
    {
      "inputs": [
        {
          "internalType": "string",
          "name": "",
          "type": "string"
        }
      ],
      "name": "_pools",
      "outputs": [
        {
          "internalType": "contract Pool",
          "name": "",
          "type": "address"
        }
      ],
      "stateMutability": "view",
      "type": "function"
    },
    {
      "inputs": [
        {
          "internalType": "string",
          "name": "name",
          "type": "string"
        },
        {
          "internalType": "address",
          "name": "token",
          "type": "address"
        },
        {
          "internalType": "uint256",
          "name": "duration",
          "type": "uint256"
        },
        {
          "internalType": "uint256",
          "name": "amount",
          "type": "uint256"
        },
        {
          "internalType": "uint256",
          "name": "fee",
          "type": "uint256"
        }
      ],
      "name": "createStakingPool",
      "outputs": [],
      "stateMutability": "nonpayable",
      "type": "function"
    },
    {
      "inputs": [
        {
          "internalType": "uint256",
          "name": "",
          "type": "uint256"
        }
      ],
      "name": "pools",
      "outputs": [
        {
          "internalType": "contract Pool",
          "name": "",
          "type": "address"
        }
      ],
      "stateMutability": "view",
      "type": "function"
    }
  ],
  "bytecode": "0x608060405234801561001057600080fd5b50611aa1806100206000396000f3fe608060405234801561001057600080fd5b50600436106100415760003560e01c8063650af32114610046578063ac4afa381461005b578063d85c416a1461008a575b600080fd5b610059610054366004610314565b6100be565b005b61006e61006936600461038a565b61023a565b6040516001600160a01b03909116815260200160405180910390f35b61006e6100983660046103a3565b80516020818301810180516001825292820191909301209152546001600160a01b031681565b600084338585856040516100d190610264565b6001600160a01b03958616815294909316602085015260408401919091526060830152608082015260a001604051809103906000f080158015610118573d6000803e3d6000fd5b50905060008642604051602001610130929190610410565b60408051808303601f190181529082905260008054600180820183559180527f290decd9548b62a8d60345a988386fc84ba6bc95484008f6362f93160ef3e5630180546001600160a01b0319166001600160a01b038716179055909250839161019a908490610435565b90815260405190819003602001812080546001600160a01b03939093166001600160a01b0319909316929092179091556101d5908290610435565b604080519182900382203383526001600160a01b0389811660208501529183018890526060830187905291908416907f5f0289577afa84ca91c4b46fea8baba7d4b8e67daae40ca68b38f9958f9ab1a49060800160405180910390a350505050505050565b6000818154811061024a57600080fd5b6000918252602090912001546001600160a01b0316905081565b6116238061044983390190565b634e487b7160e01b600052604160045260246000fd5b600082601f83011261029857600080fd5b813567ffffffffffffffff808211156102b3576102b3610271565b604051601f8301601f19908116603f011681019082821181831017156102db576102db610271565b816040528381528660208588010111156102f457600080fd5b836020870160208301376000602085830101528094505050505092915050565b600080600080600060a0868803121561032c57600080fd5b853567ffffffffffffffff81111561034357600080fd5b61034f88828901610287565b95505060208601356001600160a01b038116811461036c57600080fd5b94979496505050506040830135926060810135926080909101359150565b60006020828403121561039c57600080fd5b5035919050565b6000602082840312156103b557600080fd5b813567ffffffffffffffff8111156103cc57600080fd5b6103d884828501610287565b949350505050565b6000815160005b8181101561040157602081850181015186830152016103e7565b50600093019283525090919050565b600061041c82856103e0565b602360f81b815260018101939093525050602101919050565b600061044182846103e0565b939250505056fe608060405234801561001057600080fd5b5060405161162338038061162383398101604081905261002f9161009f565b600080546001600160a01b039687166001600160a01b03199182161782556001805496909716951694909417909455426002556003919091556004805460ff191690556005929092556007556006556100ed565b80516001600160a01b038116811461009a57600080fd5b919050565b600080600080600060a086880312156100b757600080fd5b6100c086610083565b94506100ce60208701610083565b6040870151606088015160809098015196999198509695945092505050565b611527806100fc6000396000f3fe60806040526004361061011f5760003560e01c80638369d0da116100a0578063c241267611610064578063c2412676146102d6578063c91ceccc146102f6578063d4e932921461037e578063d5a44f8614610386578063e8db4e68146103a657600080fd5b80638369d0da146102585780639197b7cd14610278578063a1f29d9114610280578063ad560c2a14610296578063b3c049be146102b657600080fd5b80632e9f411e116100e75780632e9f411e146101f15780634019b887146102045780635fd8c71014610224578063682268401461022c57806377ea7f6c1461024257600080fd5b80630cd865e2146101245780631125a81d146101545780631141da791461017e57806318bee97e146101a25780632a7fd4c6146101da575b600080fd5b34801561013057600080fd5b5060045461013e9060ff1681565b60405161014b9190611277565b60405180910390f35b34801561016057600080fd5b506101696103bc565b6040805192835260208301919091520161014b565b34801561018a57600080fd5b5061019460055481565b60405190815260200161014b565b3480156101ae57600080fd5b506001546101c2906001600160a01b031681565b6040516001600160a01b03909116815260200161014b565b3480156101e657600080fd5b506101ef61045d565b005b6101ef6101ff36600461128b565b610524565b34801561021057600080fd5b506101ef61021f3660046112ad565b610ae2565b6101ef610b11565b34801561023857600080fd5b5061019460035481565b34801561024e57600080fd5b5061019460065481565b34801561026457600080fd5b506101ef6102733660046112ad565b610c16565b6101ef610c45565b34801561028c57600080fd5b5061019460025481565b3480156102a257600080fd5b506101ef6102b13660046112ad565b610e43565b3480156102c257600080fd5b506101ef6102d13660046112ad565b610e87565b3480156102e257600080fd5b506000546101c2906001600160a01b031681565b34801561030257600080fd5b506103696103113660046112c6565b6009602052600090815260409020805460018201546002830154600384015460048501546005860154600687015460078801546008909801546001600160a01b03909716979596949593949293919290919060ff1689565b60405161014b999897969594939291906112f6565b6101ef610eb6565b34801561039257600080fd5b506103696103a13660046112ad565b6110ee565b3480156103b257600080fd5b5061019460075481565b336000908152600960205260408120600254829190829062015180906103e29042611366565b6103ec9190611379565b90506000816003546103fe9190611366565b90506000816006546104109190611379565b9050600061041c611156565b9050600061042a8284611379565b90506000620f42406006548860060154610444919061139b565b61044e9190611379565b99919850909650505050505050565b6001546001600160a01b031633146104905760405162461bcd60e51b8152600401610487906113b2565b60405180910390fd5b600062015180600254426104a49190611366565b6104ae9190611379565b90506003548110156105145760405162461bcd60e51b815260206004820152602960248201527f43616e6e6f7420646561637469766174652074686520706f6f6c206174207468604482015268329036b7b6b2b73a1760b91b6064820152608401610487565b506004805460ff19166001179055565b600060045460ff16600181111561053d5761053d61123f565b1461055a5760405162461bcd60e51b815260040161048790611407565b6105626111ec565b156105d7576040805162461bcd60e51b81526020600482015260248101919091527f4120757365722063616e6e6f74207374616b65207768696c652068652f73686560448201527f2068617320616e20616374697665207374616b696e6720706f736974696f6e2e6064820152608401610487565b600082116106375760405162461bcd60e51b815260206004820152602760248201527f4e6f7420656e6f75676820746f6b656e7320726571756972656420666f7220736044820152663a30b5b4b7339760c91b6064820152608401610487565b60035481108015610649575060018110155b6106955760405162461bcd60e51b815260206004820152601b60248201527f496e61707072696f70617465206c6f636b206475726174696f6e2e00000000006044820152606401610487565b81600760008282546106a7919061144d565b909155505060025460009062015180906106c19042611366565b6106cb9190611379565b90506000816003546106dd9190611366565b90506000816106ee856103e861139b565b6106f89190611379565b90506000600754866103e861070d919061139b565b6107179190611379565b905060008215801561072857508115155b1561073f5761073882600161139b565b9050610782565b8115801561074c57508215155b1561075c5761073883600161139b565b81158015610768575082155b1561077557506001610782565b61077f828461139b565b90505b806000036107d25760405162461bcd60e51b815260206004820152601760248201527f526577617264732063616e6e6f74206265207a65726f2e0000000000000000006044820152606401610487565b6000604051806101200160405280336001600160a01b03168152602001898152602001428152602001888152602001858152602001848152602001838152602001600081526020016000600181111561082d5761082d61123f565b9052600880546001808201835560009290925282517ff3f7a9fe364faab93b216da50a3214154f22a0a2b415b23a84c8169e8b636ee3600990920291820180546001600160a01b0319166001600160a01b0390921691909117815560208401517ff3f7a9fe364faab93b216da50a3214154f22a0a2b415b23a84c8169e8b636ee483015560408401517ff3f7a9fe364faab93b216da50a3214154f22a0a2b415b23a84c8169e8b636ee583015560608401517ff3f7a9fe364faab93b216da50a3214154f22a0a2b415b23a84c8169e8b636ee683015560808401517ff3f7a9fe364faab93b216da50a3214154f22a0a2b415b23a84c8169e8b636ee783015560a08401517ff3f7a9fe364faab93b216da50a3214154f22a0a2b415b23a84c8169e8b636ee883015560c08401517ff3f7a9fe364faab93b216da50a3214154f22a0a2b415b23a84c8169e8b636ee983015560e08401517ff3f7a9fe364faab93b216da50a3214154f22a0a2b415b23a84c8169e8b636eea8301556101008401517ff3f7a9fe364faab93b216da50a3214154f22a0a2b415b23a84c8169e8b636eeb909201805494955085949193909160ff19169083818111156109f2576109f261123f565b02179055505033600090815260096020908152604091829020845181546001600160a01b0319166001600160a01b0390911617815590840151600180830191909155918401516002820155606084015160038201556080840151600482015560a0840151600582015560c0840151600682015560e0840151600782015561010084015160088201805486955092939192909160ff19909116908381811115610a9c57610a9c61123f565b0217905550506040518981523391507f9e71bc8eea02a63969f509818f2dafb9254532904319f9dbda79b67bd34a5f3d9060200160405180910390a25050505050505050565b6001546001600160a01b03163314610b0c5760405162461bcd60e51b8152600401610487906113b2565b600555565b600060045460ff166001811115610b2a57610b2a61123f565b14610b475760405162461bcd60e51b815260040161048790611407565b336000908152600960205260409020600781015480610b785760405162461bcd60e51b815260040161048790611460565b6000610b826103bc565b91505080821115610bdf57610b978183611366565b83600701819055508060066000828254610bb19190611366565b909155505060405181815233906000805160206114d2833981519152906020015b60405180910390a2505050565b8160066000828254610bf19190611366565b909155505060405182815233906000805160206114d283398151915290602001610bd2565b6001546001600160a01b03163314610c405760405162461bcd60e51b8152600401610487906113b2565b600255565b600060045460ff166001811115610c5e57610c5e61123f565b14610c7b5760405162461bcd60e51b815260040161048790611407565b33600090815260096020526040812090600882015460ff166001811115610ca457610ca461123f565b14610cc15760405162461bcd60e51b815260040161048790611460565b600062015180826002015442610cd79190611366565b610ce19190611379565b90506000818360030154610cf59190611366565b9050600080610d026103bc565b9150915060055483610d14919061139b565b610d1e9083611366565b915080821115610dba576000856001015482610d3a919061144d565b9050610d468284611366565b8660070181905550856001015460076000828254610d649190611366565b925050819055508160066000828254610d7d9190611366565b909155505060088601805460ff1916600117905560405181815233906000805160206114d28339815191529060200160405180910390a250610e3c565b6000856001015483610dcc919061144d565b60088701805491925060019160ff191682800217905550856001015460076000828254610df99190611366565b925050819055508260066000828254610e129190611366565b909155505060405181815233906000805160206114d28339815191529060200160405180910390a2505b5050505050565b6001546001600160a01b03163314610e6d5760405162461bcd60e51b8152600401610487906113b2565b8060066000828254610e7f919061144d565b909155505050565b6001546001600160a01b03163314610eb15760405162461bcd60e51b8152600401610487906113b2565b600355565b600060045460ff166001811115610ecf57610ecf61123f565b14610eec5760405162461bcd60e51b815260040161048790611407565b33600090815260096020526040812090600882015460ff166001811115610f1557610f1561123f565b14610f325760405162461bcd60e51b815260040161048790611460565b600062015180826002015442610f489190611366565b610f529190611379565b90508160030154811015610fba5760405162461bcd60e51b815260206004820152602960248201527f5769746864726177616c206973206e6f7420617661696c61626c6520617420746044820152683434b9903a34b6b29760b91b6064820152608401610487565b600080610fc56103bc565b9150915080821115611066576000846001015482610fe3919061144d565b9050610fef8284611366565b60078601556008850180546001919060ff19168280021790555084600101546007600082825461101f9190611366565b9250508190555081600660008282546110389190611366565b909155505060405181815233906000805160206114d28339815191529060200160405180910390a2506110e8565b6000846001015483611078919061144d565b60088601805491925060019160ff1916828002179055508460010154600760008282546110a59190611366565b9250508190555082600660008282546110be9190611366565b909155505060405181815233906000805160206114d28339815191529060200160405180910390a2505b50505050565b600881815481106110fe57600080fd5b60009182526020909120600990910201805460018201546002830154600384015460048501546005860154600687015460078801546008909801546001600160a01b0390971698509496939592949193909260ff1689565b600080805b6008548110156111da5760006008828154811061117a5761117a6114a2565b906000526020600020906009020190506000620151808260020154426111a09190611366565b6111aa9190611379565b9050816003015481106111c5576111c260018561144d565b93505b505080806111d2906114b8565b91505061115b565b50806000036111e7575060015b919050565b3360008181526009602052604081208054919283926001600160a01b031614801561122f57506000600882015460ff16600181111561122d5761122d61123f565b145b1561123957600191505b50919050565b634e487b7160e01b600052602160045260246000fd5b6002811061127357634e487b7160e01b600052602160045260246000fd5b9052565b602081016112858284611255565b92915050565b6000806040838503121561129e57600080fd5b50508035926020909101359150565b6000602082840312156112bf57600080fd5b5035919050565b6000602082840312156112d857600080fd5b81356001600160a01b03811681146112ef57600080fd5b9392505050565b60006101208201905060018060a01b038b1682528960208301528860408301528760608301528660808301528560a08301528460c08301528360e0830152611342610100830184611255565b9a9950505050505050505050565b634e487b7160e01b600052601160045260246000fd5b8181038181111561128557611285611350565b60008261139657634e487b7160e01b600052601260045260246000fd5b500490565b808202811582820484141761128557611285611350565b60208082526035908201527f4f6e6c79207468652063726561746f72206f66207468697320706f6f6c206361604082015274371031b0b636103a3434b990333ab731ba34b7b71760591b606082015260800190565b60208082526026908201527f5468697320506f6f6c206973206e6f742061637469766520617420746865206d60408201526537b6b2b73a1760d11b606082015260800190565b8082018082111561128557611285611350565b60208082526022908201527f596f752061726520696e656c696769626c6520666f7220776974686472617761604082015261361760f11b606082015260800190565b634e487b7160e01b600052603260045260246000fd5b6000600182016114ca576114ca611350565b506001019056fe7fcf532c15f0a6db0bd6d0e038bea71d30d808c7d98cb3bf7268a95bf5081b65a264697066735822122064dfbc3109b02a78307db8cc1a520dce82c9c588d5ce915e4203fb7953d5697e64736f6c63430008140033a26469706673582212201cd7a0aebd53bffc4951363ef731ebb020f9591e6b71f774edb5da8e224624ab64736f6c63430008140033",
  "linkReferences": {},
  "deployedLinkReferences": {}
}